{
  "contractName": "SmartHouse",
  "abi": [
    {
      "constant": false,
      "inputs": [
        {
          "name": "_contractManager",
          "type": "address"
        }
      ],
      "name": "setContractManager",
      "outputs": [
        {
          "name": "",
          "type": "bool"
        }
      ],
      "payable": false,
      "stateMutability": "nonpayable",
      "type": "function",
      "signature": "0xd8dbe4c9"
    },
    {
      "constant": true,
      "inputs": [
        {
          "name": "_claimant",
          "type": "address"
        },
        {
          "name": "_propertyId",
          "type": "uint256"
        }
      ],
      "name": "isOwner",
      "outputs": [
        {
          "name": "",
          "type": "bool"
        }
      ],
      "payable": false,
      "stateMutability": "view",
      "type": "function",
      "signature": "0xe327a6af"
    },
    {
      "constant": true,
      "inputs": [],
      "name": "totalSupply",
      "outputs": [
        {
          "name": "",
          "type": "uint256"
        }
      ],
      "payable": false,
      "stateMutability": "view",
      "type": "function",
      "signature": "0x18160ddd"
    },
    {
      "constant": true,
      "inputs": [
        {
          "name": "_propertyId",
          "type": "uint256"
        }
      ],
      "name": "ownerOf",
      "outputs": [
        {
          "name": "",
          "type": "address"
        }
      ],
      "payable": false,
      "stateMutability": "view",
      "type": "function",
      "signature": "0x6352211e"
    },
    {
      "constant": true,
      "inputs": [
        {
          "name": "_owner",
          "type": "address"
        }
      ],
      "name": "balanceOf",
      "outputs": [
        {
          "name": "",
          "type": "uint256"
        }
      ],
      "payable": false,
      "stateMutability": "view",
      "type": "function",
      "signature": "0x70a08231"
    },
    {
      "constant": true,
      "inputs": [
        {
          "name": "_propertyId",
          "type": "uint256"
        }
      ],
      "name": "getHouseData",
      "outputs": [
        {
          "name": "",
          "type": "string"
        },
        {
          "name": "",
          "type": "address"
        }
      ],
      "payable": false,
      "stateMutability": "view",
      "type": "function",
      "signature": "0xb2abfb13"
    },
    {
      "constant": true,
      "inputs": [
        {
          "name": "_propertyId",
          "type": "uint256"
        }
      ],
      "name": "getCryptoKey",
      "outputs": [
        {
          "name": "",
          "type": "bytes32"
        }
      ],
      "payable": false,
      "stateMutability": "view",
      "type": "function",
      "signature": "0xe0bec3fe"
    },
    {
      "constant": false,
      "inputs": [
        {
          "name": "_propertyId",
          "type": "uint256"
        },
        {
          "name": "_location",
          "type": "string"
        },
        {
          "name": "_beneficiary",
          "type": "address"
        }
      ],
      "name": "houseRegistration",
      "outputs": [],
      "payable": false,
      "stateMutability": "nonpayable",
      "type": "function",
      "signature": "0x9c839ced"
    },
    {
      "constant": false,
      "inputs": [
        {
          "name": "_propertyId",
          "type": "uint256"
        },
        {
          "name": "_buyer",
          "type": "address"
        },
        {
          "name": "_seller",
          "type": "address"
        },
        {
          "name": "_ipfsHash",
          "type": "string"
        },
        {
          "name": "_notaryPrice",
          "type": "uint256"
        },
        {
          "name": "_amountPrice",
          "type": "uint256"
        },
        {
          "name": "_depositAmount",
          "type": "uint256"
        }
      ],
      "name": "createTransaction",
      "outputs": [],
      "payable": false,
      "stateMutability": "nonpayable",
      "type": "function",
      "signature": "0x16e7f6b1"
    },
    {
      "constant": false,
      "inputs": [
        {
          "name": "_propertyId",
          "type": "uint256"
        }
      ],
      "name": "sellerTransaction",
      "outputs": [],
      "payable": true,
      "stateMutability": "payable",
      "type": "function",
      "signature": "0x3ec2033e"
    },
    {
      "constant": false,
      "inputs": [
        {
          "name": "_propertyId",
          "type": "uint256"
        }
      ],
      "name": "buyerTransaction",
      "outputs": [],
      "payable": true,
      "stateMutability": "payable",
      "type": "function",
      "signature": "0x1a2db9a1"
    },
    {
      "constant": false,
      "inputs": [
        {
          "name": "_propertyId",
          "type": "uint256"
        }
      ],
      "name": "completeTransaction",
      "outputs": [],
      "payable": false,
      "stateMutability": "nonpayable",
      "type": "function",
      "signature": "0xf5e83e17"
    },
    {
      "constant": false,
      "inputs": [
        {
          "name": "_propertyId",
          "type": "uint256"
        }
      ],
      "name": "abortTransaction",
      "outputs": [],
      "payable": false,
      "stateMutability": "nonpayable",
      "type": "function",
      "signature": "0x3ed0bbba"
    },
    {
      "constant": true,
      "inputs": [
        {
          "name": "_propertyId",
          "type": "uint256"
        }
      ],
      "name": "getTransactionData",
      "outputs": [
        {
          "name": "",
          "type": "address"
        },
        {
          "name": "",
          "type": "address"
        },
        {
          "name": "",
          "type": "address"
        },
        {
          "name": "",
          "type": "string"
        },
        {
          "name": "",
          "type": "uint8"
        }
      ],
      "payable": false,
      "stateMutability": "view",
      "type": "function",
      "signature": "0x3b24b547"
    },
    {
      "constant": true,
      "inputs": [
        {
          "name": "_propertyId",
          "type": "uint256"
        }
      ],
      "name": "getTransactionPayment",
      "outputs": [
        {
          "name": "",
          "type": "uint256"
        },
        {
          "name": "",
          "type": "uint256"
        },
        {
          "name": "",
          "type": "uint256"
        },
        {
          "name": "",
          "type": "uint256"
        },
        {
          "name": "",
          "type": "uint256"
        }
      ],
      "payable": false,
      "stateMutability": "view",
      "type": "function",
      "signature": "0x2f71c224"
    }
  ],
  "bytecode": "0x608060405234801561001057600080fd5b50613047806100206000396000f3fe6080604052600436106100db576000357c0100000000000000000000000000000000000000000000000000000000900463ffffffff16806316e7f6b1146100e057806318160ddd146101ce5780631a2db9a1146101f95780632f71c224146102275780633b24b547146102925780633ec2033e146103f45780633ed0bbba146104225780636352211e1461045d57806370a08231146104d85780639c839ced1461053d578063b2abfb13146105ed578063d8dbe4c9146106d4578063e0bec3fe1461073d578063e327a6af1461078c578063f5e83e17146107ff575b600080fd5b3480156100ec57600080fd5b506101cc600480360360e081101561010357600080fd5b8101908080359060200190929190803573ffffffffffffffffffffffffffffffffffffffff169060200190929190803573ffffffffffffffffffffffffffffffffffffffff1690602001909291908035906020019064010000000081111561016a57600080fd5b82018360208201111561017c57600080fd5b8035906020019184600183028401116401000000008311171561019e57600080fd5b909192939192939080359060200190929190803590602001909291908035906020019092919050505061083a565b005b3480156101da57600080fd5b506101e3610afe565b6040518082815260200191505060405180910390f35b6102256004803603602081101561020f57600080fd5b8101908080359060200190929190505050610ba9565b005b34801561023357600080fd5b506102606004803603602081101561024a57600080fd5b8101908080359060200190929190505050610d60565b604051808681526020018581526020018481526020018381526020018281526020019550505050505060405180910390f35b34801561029e57600080fd5b506102cb600480360360208110156102b557600080fd5b81019080803590602001909291905050506111ae565b604051808673ffffffffffffffffffffffffffffffffffffffff1673ffffffffffffffffffffffffffffffffffffffff1681526020018573ffffffffffffffffffffffffffffffffffffffff1673ffffffffffffffffffffffffffffffffffffffff1681526020018473ffffffffffffffffffffffffffffffffffffffff1673ffffffffffffffffffffffffffffffffffffffff1681526020018060200183600481111561037557fe5b60ff168152602001828103825284818151815260200191508051906020019080838360005b838110156103b557808201518184015260208101905061039a565b50505050905090810190601f1680156103e25780820380516001836020036101000a031916815260200191505b50965050505050505060405180910390f35b6104206004803603602081101561040a57600080fd5b810190808035906020019092919050505061165c565b005b34801561042e57600080fd5b5061045b6004803603602081101561044557600080fd5b8101908080359060200190929190505050611813565b005b34801561046957600080fd5b506104966004803603602081101561048057600080fd5b8101908080359060200190929190505050611a30565b604051808273ffffffffffffffffffffffffffffffffffffffff1673ffffffffffffffffffffffffffffffffffffffff16815260200191505060405180910390f35b3480156104e457600080fd5b50610527600480360360208110156104fb57600080fd5b81019080803573ffffffffffffffffffffffffffffffffffffffff169060200190929190505050611ae8565b6040518082815260200191505060405180910390f35b34801561054957600080fd5b506105eb6004803603606081101561056057600080fd5b81019080803590602001909291908035906020019064010000000081111561058757600080fd5b82018360208201111561059957600080fd5b803590602001918460018302840111640100000000831117156105bb57600080fd5b9091929391929390803573ffffffffffffffffffffffffffffffffffffffff169060200190929190505050611bcc565b005b3480156105f957600080fd5b506106266004803603602081101561061057600080fd5b8101908080359060200190929190505050611e28565b60405180806020018373ffffffffffffffffffffffffffffffffffffffff1673ffffffffffffffffffffffffffffffffffffffff168152602001828103825284818151815260200191508051906020019080838360005b8381101561069857808201518184015260208101905061067d565b50505050905090810190601f1680156106c55780820380516001836020036101000a031916815260200191505b50935050505060405180910390f35b3480156106e057600080fd5b50610723600480360360208110156106f757600080fd5b81019080803573ffffffffffffffffffffffffffffffffffffffff169060200190929190505050611f47565b604051808215151515815260200191505060405180910390f35b34801561074957600080fd5b506107766004803603602081101561076057600080fd5b8101908080359060200190929190505050612009565b6040518082815260200191505060405180910390f35b34801561079857600080fd5b506107e5600480360360408110156107af57600080fd5b81019080803573ffffffffffffffffffffffffffffffffffffffff16906020019092919080359060200190929190505050612141565b604051808215151515815260200191505060405180910390f35b34801561080b57600080fd5b506108386004803603602081101561082257600080fd5b8101908080359060200190929190505050612182565b005b6108438861249f565b80610853575061085288612570565b5b8061090a5750610861612640565b73ffffffffffffffffffffffffffffffffffffffff166364f62ad5896040518263ffffffff167c01000000000000000000000000000000000000000000000000000000000281526004018082815260200191505060206040518083038186803b1580156108cd57600080fd5b505afa1580156108e1573d6000803e3d6000fd5b505050506040513d60208110156108f757600080fd5b8101908080519060200190929190505050155b151561097e576040517f08c379a000000000000000000000000000000000000000000000000000000000815260040180806020018281038252600d8152602001807f496e76616c69642073746174650000000000000000000000000000000000000081525060200191505060405180910390fd5b610986612640565b73ffffffffffffffffffffffffffffffffffffffff16631ab5701b89338a8a8a8a8a8a8a6040518a63ffffffff167c0100000000000000000000000000000000000000000000000000000000028152600401808a81526020018973ffffffffffffffffffffffffffffffffffffffff1673ffffffffffffffffffffffffffffffffffffffff1681526020018873ffffffffffffffffffffffffffffffffffffffff1673ffffffffffffffffffffffffffffffffffffffff1681526020018773ffffffffffffffffffffffffffffffffffffffff1673ffffffffffffffffffffffffffffffffffffffff168152602001806020018581526020018481526020018381526020018281038252878782818152602001925080828437600081840152601f19601f8201169050808301925050509a5050505050505050505050600060405180830381600087803b158015610adc57600080fd5b505af1158015610af0573d6000803e3d6000fd5b505050505050505050505050565b6000610b08612730565b73ffffffffffffffffffffffffffffffffffffffff166318160ddd6040518163ffffffff167c010000000000000000000000000000000000000000000000000000000002815260040160206040518083038186803b158015610b6957600080fd5b505afa158015610b7d573d6000803e3d6000fd5b505050506040513d6020811015610b9357600080fd5b8101908080519060200190929190505050905090565b80610bb43382612820565b1515610c4e576040517f08c379a00000000000000000000000000000000000000000000000000000000081526004018080602001828103825260238152602001807f496e76616c696420627579657220666f72207468657365207472616e7361637481526020017f696f6e000000000000000000000000000000000000000000000000000000000081525060400191505060405180910390fd5b81610c5881612907565b1515610ccc576040517f08c379a000000000000000000000000000000000000000000000000000000000815260040180806020018281038252600d8152602001807f496e76616c69642073746174650000000000000000000000000000000000000081525060200191505060405180910390fd5b610cd4612640565b73ffffffffffffffffffffffffffffffffffffffff16631a2db9a134856040518363ffffffff167c0100000000000000000000000000000000000000000000000000000000028152600401808281526020019150506000604051808303818588803b158015610d4257600080fd5b505af1158015610d56573d6000803e3d6000fd5b5050505050505050565b600080600080600085610d7333826129d8565b80610d845750610d833382612820565b5b80610d955750610d943382612abf565b5b1515610e2f576040517f08c379a00000000000000000000000000000000000000000000000000000000081526004018080602001828103825260248152602001807f496e76616c69642073656c6c657220666f72207468657365207472616e73616381526020017f74696f6e0000000000000000000000000000000000000000000000000000000081525060400191505060405180910390fd5b610e37612640565b73ffffffffffffffffffffffffffffffffffffffff1663d6d894da886040518263ffffffff167c01000000000000000000000000000000000000000000000000000000000281526004018082815260200191505060206040518083038186803b158015610ea357600080fd5b505afa158015610eb7573d6000803e3d6000fd5b505050506040513d6020811015610ecd57600080fd5b8101908080519060200190929190505050610ee6612640565b73ffffffffffffffffffffffffffffffffffffffff166369f19865896040518263ffffffff167c01000000000000000000000000000000000000000000000000000000000281526004018082815260200191505060206040518083038186803b158015610f5257600080fd5b505afa158015610f66573d6000803e3d6000fd5b505050506040513d6020811015610f7c57600080fd5b8101908080519060200190929190505050610f95612640565b73ffffffffffffffffffffffffffffffffffffffff16633f9fe05b8a6040518263ffffffff167c01000000000000000000000000000000000000000000000000000000000281526004018082815260200191505060206040518083038186803b15801561100157600080fd5b505afa158015611015573d6000803e3d6000fd5b505050506040513d602081101561102b57600080fd5b8101908080519060200190929190505050611044612640565b73ffffffffffffffffffffffffffffffffffffffff1663aaba387d8b6040518263ffffffff167c01000000000000000000000000000000000000000000000000000000000281526004018082815260200191505060206040518083038186803b1580156110b057600080fd5b505afa1580156110c4573d6000803e3d6000fd5b505050506040513d60208110156110da57600080fd5b81019080805190602001909291905050506110f3612640565b73ffffffffffffffffffffffffffffffffffffffff1663d96b5a1e8c6040518263ffffffff167c01000000000000000000000000000000000000000000000000000000000281526004018082815260200191505060206040518083038186803b15801561115f57600080fd5b505afa158015611173573d6000803e3d6000fd5b505050506040513d602081101561118957600080fd5b8101908080519060200190929190505050955095509550955095505091939590929450565b600080600060606000856111c233826129d8565b806111d357506111d23382612820565b5b806111e457506111e33382612abf565b5b151561127e576040517f08c379a00000000000000000000000000000000000000000000000000000000081526004018080602001828103825260248152602001807f496e76616c69642073656c6c657220666f72207468657365207472616e73616381526020017f74696f6e0000000000000000000000000000000000000000000000000000000081525060400191505060405180910390fd5b611286612640565b73ffffffffffffffffffffffffffffffffffffffff1663438e66cb886040518263ffffffff167c01000000000000000000000000000000000000000000000000000000000281526004018082815260200191505060206040518083038186803b1580156112f257600080fd5b505afa158015611306573d6000803e3d6000fd5b505050506040513d602081101561131c57600080fd5b8101908080519060200190929190505050611335612640565b73ffffffffffffffffffffffffffffffffffffffff1663e05c5a83896040518263ffffffff167c01000000000000000000000000000000000000000000000000000000000281526004018082815260200191505060206040518083038186803b1580156113a157600080fd5b505afa1580156113b5573d6000803e3d6000fd5b505050506040513d60208110156113cb57600080fd5b81019080805190602001909291905050506113e4612640565b73ffffffffffffffffffffffffffffffffffffffff1663da0ade508a6040518263ffffffff167c01000000000000000000000000000000000000000000000000000000000281526004018082815260200191505060206040518083038186803b15801561145057600080fd5b505afa158015611464573d6000803e3d6000fd5b505050506040513d602081101561147a57600080fd5b8101908080519060200190929190505050611493612640565b73ffffffffffffffffffffffffffffffffffffffff16636549f3fc8b6040518263ffffffff167c01000000000000000000000000000000000000000000000000000000000281526004018082815260200191505060006040518083038186803b1580156114ff57600080fd5b505afa158015611513573d6000803e3d6000fd5b505050506040513d6000823e3d601f19601f82011682018060405250602081101561153d57600080fd5b81019080805164010000000081111561155557600080fd5b8281019050602081018481111561156b57600080fd5b815185600182028301116401000000008211171561158857600080fd5b5050929190505050611598612640565b73ffffffffffffffffffffffffffffffffffffffff1663131a7e248c6040518263ffffffff167c01000000000000000000000000000000000000000000000000000000000281526004018082815260200191505060206040518083038186803b15801561160457600080fd5b505afa158015611618573d6000803e3d6000fd5b505050506040513d602081101561162e57600080fd5b8101908080519060200190929190505050849450839350829250955095509550955095505091939590929450565b8061166733826129d8565b1515611701576040517f08c379a00000000000000000000000000000000000000000000000000000000081526004018080602001828103825260248152602001807f496e76616c69642073656c6c657220666f72207468657365207472616e73616381526020017f74696f6e0000000000000000000000000000000000000000000000000000000081525060400191505060405180910390fd5b8161170b81612ba6565b151561177f576040517f08c379a000000000000000000000000000000000000000000000000000000000815260040180806020018281038252600d8152602001807f496e76616c69642073746174650000000000000000000000000000000000000081525060200191505060405180910390fd5b611787612640565b73ffffffffffffffffffffffffffffffffffffffff16633ec2033e34856040518363ffffffff167c0100000000000000000000000000000000000000000000000000000000028152600401808281526020019150506000604051808303818588803b1580156117f557600080fd5b505af1158015611809573d6000803e3d6000fd5b5050505050505050565b8061181e33826129d8565b8061182f575061182e3382612820565b5b80611840575061183f3382612abf565b5b15156118da576040517f08c379a00000000000000000000000000000000000000000000000000000000081526004018080602001828103825260248152602001807f496e76616c69642073656c6c657220666f72207468657365207472616e73616381526020017f74696f6e0000000000000000000000000000000000000000000000000000000081525060400191505060405180910390fd5b6118e38261249f565b1580156118f657506118f482612570565b155b151561196a576040517f08c379a000000000000000000000000000000000000000000000000000000000815260040180806020018281038252600d8152602001807f496e76616c69642073746174650000000000000000000000000000000000000081525060200191505060405180910390fd5b611972612640565b73ffffffffffffffffffffffffffffffffffffffff1663f89b5c9133846040518363ffffffff167c0100000000000000000000000000000000000000000000000000000000028152600401808373ffffffffffffffffffffffffffffffffffffffff1673ffffffffffffffffffffffffffffffffffffffff16815260200182815260200192505050600060405180830381600087803b158015611a1457600080fd5b505af1158015611a28573d6000803e3d6000fd5b505050505050565b6000611a3a612730565b73ffffffffffffffffffffffffffffffffffffffff16636352211e836040518263ffffffff167c01000000000000000000000000000000000000000000000000000000000281526004018082815260200191505060206040518083038186803b158015611aa657600080fd5b505afa158015611aba573d6000803e3d6000fd5b505050506040513d6020811015611ad057600080fd5b81019080805190602001909291905050509050919050565b6000611af2612730565b73ffffffffffffffffffffffffffffffffffffffff166370a08231836040518263ffffffff167c0100000000000000000000000000000000000000000000000000000000028152600401808273ffffffffffffffffffffffffffffffffffffffff1673ffffffffffffffffffffffffffffffffffffffff16815260200191505060206040518083038186803b158015611b8a57600080fd5b505afa158015611b9e573d6000803e3d6000fd5b505050506040513d6020811015611bb457600080fd5b81019080805190602001909291905050509050919050565b3373ffffffffffffffffffffffffffffffffffffffff166000809054906101000a900473ffffffffffffffffffffffffffffffffffffffff1673ffffffffffffffffffffffffffffffffffffffff16638da5cb5b6040518163ffffffff167c010000000000000000000000000000000000000000000000000000000002815260040160206040518083038186803b158015611c6657600080fd5b505afa158015611c7a573d6000803e3d6000fd5b505050506040513d6020811015611c9057600080fd5b810190808051906020019092919050505073ffffffffffffffffffffffffffffffffffffffff16141515611d2c576040517f08c379a00000000000000000000000000000000000000000000000000000000081526004018080602001828103825260198152602001807f496e76616c6964204f776e6572204f6620436f6e74726163740000000000000081525060200191505060405180910390fd5b611d34612730565b73ffffffffffffffffffffffffffffffffffffffff16639c839ced858585856040518563ffffffff167c010000000000000000000000000000000000000000000000000000000002815260040180858152602001806020018373ffffffffffffffffffffffffffffffffffffffff1673ffffffffffffffffffffffffffffffffffffffff1681526020018281038252858582818152602001925080828437600081840152601f19601f82011690508083019250505095505050505050600060405180830381600087803b158015611e0a57600080fd5b505af1158015611e1e573d6000803e3d6000fd5b5050505050505050565b60606000611e34612730565b73ffffffffffffffffffffffffffffffffffffffff1663b2abfb13846040518263ffffffff167c01000000000000000000000000000000000000000000000000000000000281526004018082815260200191505060006040518083038186803b158015611ea057600080fd5b505afa158015611eb4573d6000803e3d6000fd5b505050506040513d6000823e3d601f19601f820116820180604052506040811015611ede57600080fd5b810190808051640100000000811115611ef657600080fd5b82810190506020810184811115611f0c57600080fd5b8151856001820283011164010000000082111715611f2957600080fd5b50509291906020018051906020019092919050505091509150915091565b60008073ffffffffffffffffffffffffffffffffffffffff168273ffffffffffffffffffffffffffffffffffffffff1614158015611fb157508173ffffffffffffffffffffffffffffffffffffffff163373ffffffffffffffffffffffffffffffffffffffff1614155b15611fbf5760009050612004565b816000806101000a81548173ffffffffffffffffffffffffffffffffffffffff021916908373ffffffffffffffffffffffffffffffffffffffff160217905550600190505b919050565b6000816120163382612141565b151561208a576040517f08c379a000000000000000000000000000000000000000000000000000000000815260040180806020018281038252600d8152602001807f496e76616c6964206f776e65720000000000000000000000000000000000000081525060200191505060405180910390fd5b612092612730565b73ffffffffffffffffffffffffffffffffffffffff1663e0bec3fe846040518263ffffffff167c01000000000000000000000000000000000000000000000000000000000281526004018082815260200191505060206040518083038186803b1580156120fe57600080fd5b505afa158015612112573d6000803e3d6000fd5b505050506040513d602081101561212857600080fd5b8101908080519060200190929190505050915050919050565b60008273ffffffffffffffffffffffffffffffffffffffff1661216383611a30565b73ffffffffffffffffffffffffffffffffffffffff1614905092915050565b8061218d3382612abf565b1515612227576040517f08c379a00000000000000000000000000000000000000000000000000000000081526004018080602001828103825260248152602001807f496e76616c6964206e6f7461727920666f72207468657365207472616e73616381526020017f74696f6e0000000000000000000000000000000000000000000000000000000081525060400191505060405180910390fd5b8161223181612c76565b15156122a5576040517f08c379a000000000000000000000000000000000000000000000000000000000815260040180806020018281038252600d8152602001807f496e76616c69642073746174650000000000000000000000000000000000000081525060200191505060405180910390fd5b6122ad612640565b73ffffffffffffffffffffffffffffffffffffffff1663f5e83e17846040518263ffffffff167c010000000000000000000000000000000000000000000000000000000002815260040180828152602001915050600060405180830381600087803b15801561231b57600080fd5b505af115801561232f573d6000803e3d6000fd5b5050505061249a61233e612640565b73ffffffffffffffffffffffffffffffffffffffff1663e05c5a83856040518263ffffffff167c01000000000000000000000000000000000000000000000000000000000281526004018082815260200191505060206040518083038186803b1580156123aa57600080fd5b505afa1580156123be573d6000803e3d6000fd5b505050506040513d60208110156123d457600080fd5b81019080805190602001909291905050506123ed612640565b73ffffffffffffffffffffffffffffffffffffffff1663da0ade50866040518263ffffffff167c01000000000000000000000000000000000000000000000000000000000281526004018082815260200191505060206040518083038186803b15801561245957600080fd5b505afa15801561246d573d6000803e3d6000fd5b505050506040513d602081101561248357600080fd5b810190808051906020019092919050505085612d47565b505050565b6000600360048111156124ae57fe5b6124b6612640565b73ffffffffffffffffffffffffffffffffffffffff1663131a7e24846040518263ffffffff167c01000000000000000000000000000000000000000000000000000000000281526004018082815260200191505060206040518083038186803b15801561252257600080fd5b505afa158015612536573d6000803e3d6000fd5b505050506040513d602081101561254c57600080fd5b8101908080519060200190929190505050600481111561256857fe5b149050919050565b600060048081111561257e57fe5b612586612640565b73ffffffffffffffffffffffffffffffffffffffff1663131a7e24846040518263ffffffff167c01000000000000000000000000000000000000000000000000000000000281526004018082815260200191505060206040518083038186803b1580156125f257600080fd5b505afa158015612606573d6000803e3d6000fd5b505050506040513d602081101561261c57600080fd5b8101908080519060200190929190505050600481111561263857fe5b149050919050565b60008060009054906101000a900473ffffffffffffffffffffffffffffffffffffffff1673ffffffffffffffffffffffffffffffffffffffff1663ec56a3736040518163ffffffff167c010000000000000000000000000000000000000000000000000000000002815260040180807f7472616e73616374696f6e000000000000000000000000000000000000000000815250602001905060206040518083038186803b1580156126f057600080fd5b505afa158015612704573d6000803e3d6000fd5b505050506040513d602081101561271a57600080fd5b8101908080519060200190929190505050905090565b60008060009054906101000a900473ffffffffffffffffffffffffffffffffffffffff1673ffffffffffffffffffffffffffffffffffffffff1663ec56a3736040518163ffffffff167c010000000000000000000000000000000000000000000000000000000002815260040180807f686f757365000000000000000000000000000000000000000000000000000000815250602001905060206040518083038186803b1580156127e057600080fd5b505afa1580156127f4573d6000803e3d6000fd5b505050506040513d602081101561280a57600080fd5b8101908080519060200190929190505050905090565b60008273ffffffffffffffffffffffffffffffffffffffff16612841612640565b73ffffffffffffffffffffffffffffffffffffffff1663da0ade50846040518263ffffffff167c01000000000000000000000000000000000000000000000000000000000281526004018082815260200191505060206040518083038186803b1580156128ad57600080fd5b505afa1580156128c1573d6000803e3d6000fd5b505050506040513d60208110156128d757600080fd5b810190808051906020019092919050505073ffffffffffffffffffffffffffffffffffffffff1614905092915050565b60006001600481111561291657fe5b61291e612640565b73ffffffffffffffffffffffffffffffffffffffff1663131a7e24846040518263ffffffff167c01000000000000000000000000000000000000000000000000000000000281526004018082815260200191505060206040518083038186803b15801561298a57600080fd5b505afa15801561299e573d6000803e3d6000fd5b505050506040513d60208110156129b457600080fd5b810190808051906020019092919050505060048111156129d057fe5b149050919050565b60008273ffffffffffffffffffffffffffffffffffffffff166129f9612640565b73ffffffffffffffffffffffffffffffffffffffff1663e05c5a83846040518263ffffffff167c01000000000000000000000000000000000000000000000000000000000281526004018082815260200191505060206040518083038186803b158015612a6557600080fd5b505afa158015612a79573d6000803e3d6000fd5b505050506040513d6020811015612a8f57600080fd5b810190808051906020019092919050505073ffffffffffffffffffffffffffffffffffffffff1614905092915050565b60008273ffffffffffffffffffffffffffffffffffffffff16612ae0612640565b73ffffffffffffffffffffffffffffffffffffffff1663438e66cb846040518263ffffffff167c01000000000000000000000000000000000000000000000000000000000281526004018082815260200191505060206040518083038186803b158015612b4c57600080fd5b505afa158015612b60573d6000803e3d6000fd5b505050506040513d6020811015612b7657600080fd5b810190808051906020019092919050505073ffffffffffffffffffffffffffffffffffffffff1614905092915050565b6000806004811115612bb457fe5b612bbc612640565b73ffffffffffffffffffffffffffffffffffffffff1663131a7e24846040518263ffffffff167c01000000000000000000000000000000000000000000000000000000000281526004018082815260200191505060206040518083038186803b158015612c2857600080fd5b505afa158015612c3c573d6000803e3d6000fd5b505050506040513d6020811015612c5257600080fd5b81019080805190602001909291905050506004811115612c6e57fe5b149050919050565b600060026004811115612c8557fe5b612c8d612640565b73ffffffffffffffffffffffffffffffffffffffff1663131a7e24846040518263ffffffff167c01000000000000000000000000000000000000000000000000000000000281526004018082815260200191505060206040518083038186803b158015612cf957600080fd5b505afa158015612d0d573d6000803e3d6000fd5b505050506040513d6020811015612d2357600080fd5b81019080805190602001909291905050506004811115612d3f57fe5b149050919050565b81600073ffffffffffffffffffffffffffffffffffffffff168173ffffffffffffffffffffffffffffffffffffffff1614151515612ded576040517f08c379a00000000000000000000000000000000000000000000000000000000081526004018080602001828103825260138152602001807f496e76616c69642064657374696e61746172790000000000000000000000000081525060200191505060405180910390fd5b81838073ffffffffffffffffffffffffffffffffffffffff16612e0f83611a30565b73ffffffffffffffffffffffffffffffffffffffff1614151515612e9b576040517f08c379a00000000000000000000000000000000000000000000000000000000081526004018080602001828103825260178152602001807f44657374696e617461727920697320616e206f776e657200000000000000000081525060200191505060405180910390fd5b8584612ea78282612141565b1515612f1b576040517f08c379a000000000000000000000000000000000000000000000000000000000815260040180806020018281038252600d8152602001807f496e76616c6964206f776e65720000000000000000000000000000000000000081525060200191505060405180910390fd5b612f23612730565b73ffffffffffffffffffffffffffffffffffffffff1663052c36c08989896040518463ffffffff167c0100000000000000000000000000000000000000000000000000000000028152600401808473ffffffffffffffffffffffffffffffffffffffff1673ffffffffffffffffffffffffffffffffffffffff1681526020018373ffffffffffffffffffffffffffffffffffffffff1673ffffffffffffffffffffffffffffffffffffffff1681526020018281526020019350505050600060405180830381600087803b158015612ff957600080fd5b505af115801561300d573d6000803e3d6000fd5b50505050505050505050505056fea165627a7a72305820a2eda3878c8450273e34aa7cb9f91c2e9603b56006d245ce7cc700d1b61a15ea0029",
  "source": "pragma solidity <=0.5.0;\r\n//Author: Fadhlan Ridhwanallah\r\n\r\nimport './CMCEnabled.sol';\r\nimport './House.sol';\r\nimport './Transaction.sol';\r\nimport './TransactionDB.sol';\r\nimport './ContractProvider.sol';\r\n\r\n//Application Logic\r\ncontract SmartHouse is CMCEnabled {\r\n  //House part\r\n  function getHouse() private view returns (address){\r\n    return ContractProvider(contractManager).contracts('house');\r\n  }\r\n\r\n  function getTransaction() private view returns (address){\r\n    return ContractProvider(contractManager).contracts('transaction');\r\n  }\r\n\r\n  modifier onlyContractOwner() {\r\n    require(ContractProvider(contractManager).owner() == msg.sender, \"Invalid Owner Of Contract\");\r\n    _;\r\n  }\r\n\r\n  modifier onlyOwner(uint256 _propertyId) {\r\n    require(isOwner(msg.sender, _propertyId), \"Invalid owner\");\r\n    _;\r\n  }\r\n\r\n  modifier onlyCurrentOwner(address _claimant, uint256 _propertyId) {\r\n    require(isOwner(_claimant, _propertyId), \"Invalid owner\");\r\n    _;\r\n  }\r\n\r\n  modifier isDestinataryDefined(address _destinatary) {\r\n    require(_destinatary != address(0x0), \"Invalid destinatary\");\r\n    _;\r\n  }\r\n\r\n  modifier destinataryIsNotHolder(uint256 _propertyId, address _to) {\r\n    require(ownerOf(_propertyId) != _to, \"Destinatary is an owner\");\r\n    _;\r\n  }\r\n\r\n  function isOwner(address _claimant, uint256 _propertyId) public view returns (bool) {\r\n    return ownerOf(_propertyId) == _claimant;\r\n  }\r\n\r\n  function totalSupply() public view returns (uint256) {\r\n    return House(getHouse()).totalSupply();\r\n  }\r\n\r\n  function ownerOf(uint256 _propertyId) public view returns (address) {\r\n    return House(getHouse()).ownerOf(_propertyId);\r\n  }\r\n\r\n  function balanceOf(address _owner) public view returns (uint256) {\r\n    return House(getHouse()).balanceOf(_owner);\r\n  }\r\n\r\n  function getHouseData(uint256 _propertyId) external view returns (string memory, address) {\r\n    return House(getHouse()).getHouseData(_propertyId);\r\n  }\r\n\r\n  function getCryptoKey(uint256 _propertyId) external view onlyOwner(_propertyId) returns (bytes32) {\r\n    return House(getHouse()).getCryptoKey(_propertyId);\r\n  }\r\n\r\n  //External setter\r\n  function houseRegistration(uint256 _propertyId, string calldata _location, address _beneficiary) external onlyContractOwner {\r\n    return House(getHouse()).houseRegistration(_propertyId, _location, _beneficiary);\r\n  }\r\n\r\n  function transferHouse(address _from, address _to, uint256 _propertyId)\r\n    isDestinataryDefined(_to)\r\n    destinataryIsNotHolder(_propertyId, _to)\r\n    onlyCurrentOwner(_from, _propertyId)\r\n    private\r\n  {\r\n    House(getHouse()).transferHouse(_from, _to, _propertyId);\r\n  }\r\n\r\n  //Transaction part\r\n  //Modifier and Validate Function\r\n  modifier onlyNotary(uint256 _propertyId) {\r\n    require(isNotary(msg.sender, _propertyId), \"Invalid notary for these transaction\");\r\n    _;\r\n  }\r\n\r\n  modifier onlyBuyer(uint256 _propertyId) {\r\n    require(isBuyer(msg.sender, _propertyId), \"Invalid buyer for these transaction\");\r\n    _;\r\n  }\r\n\r\n  modifier onlySeller(uint256 _propertyId) {\r\n    require(isSeller(msg.sender, _propertyId), \"Invalid seller for these transaction\");\r\n    _;\r\n  }\r\n\r\n  modifier onlyStakeHolder(uint256 _propertyId) {\r\n    require(isSeller(msg.sender, _propertyId) || isBuyer(msg.sender, _propertyId) || isNotary(msg.sender, _propertyId), \"Invalid seller for these transaction\");\r\n    _;\r\n  }\r\n\r\n  modifier whenCreated(uint256 _propertyId) {\r\n    require(isCreated(_propertyId), \"Invalid state\");\r\n    _;\r\n  }\r\n\r\n  modifier whenSellerPaid(uint256 _propertyId) {\r\n    require(isSellerPaid(_propertyId), \"Invalid state\");\r\n    _;\r\n  }\r\n\r\n  modifier whenBuyerPaid(uint256 _propertyId) {\r\n    require(isBuyerPaid(_propertyId), \"Invalid state\");\r\n    _;\r\n  }\r\n\r\n  function isNotary(address _claimant, uint256 _propertyId) private view returns (bool) {\r\n    return Transaction(getTransaction()).notaryOf(_propertyId) == _claimant;\r\n  }\r\n\r\n  function isBuyer(address _claimant, uint256 _propertyId) private view returns (bool) {\r\n    return Transaction(getTransaction()).buyerOf(_propertyId) == _claimant;\r\n  }\r\n\r\n  function isSeller(address _claimant, uint256 _propertyId) private view returns (bool) {\r\n    return Transaction(getTransaction()).sellerOf(_propertyId) == _claimant;\r\n  }\r\n\r\n  function isCreated(uint256 _propertyId) private view returns (bool) {\r\n    return Transaction(getTransaction()).stateOf(_propertyId) == TransactionDB.State.Created;\r\n  }\r\n\r\n  function isSellerPaid(uint256 _propertyId) private view returns (bool) {\r\n    return Transaction(getTransaction()).stateOf(_propertyId) == TransactionDB.State.SellerPaid;\r\n  }\r\n\r\n  function isBuyerPaid(uint256 _propertyId) private view returns (bool) {\r\n    return Transaction(getTransaction()).stateOf(_propertyId) == TransactionDB.State.BuyerPaid;\r\n  }\r\n\r\n  function isFinished(uint256 _propertyId) private view returns (bool) {\r\n    return Transaction(getTransaction()).stateOf(_propertyId) == TransactionDB.State.Finished;\r\n  }\r\n\r\n  function isInActive(uint256 _propertyId) private view returns (bool) {\r\n    return Transaction(getTransaction()).stateOf(_propertyId) == TransactionDB.State.Inactive;\r\n  }\r\n\r\n  function createTransaction(uint256 _propertyId, address payable _buyer, address payable _seller, string calldata _ipfsHash, uint256 _notaryPrice,\r\n                             uint256 _amountPrice, uint256 _depositAmount)\r\n  external {\r\n    require(isFinished(_propertyId) || isInActive(_propertyId) || !(Transaction(getTransaction()).isTransactionExist(_propertyId)), \"Invalid state\");\r\n\r\n    Transaction(getTransaction()).createTransaction(_propertyId, msg.sender, _buyer, _seller, _ipfsHash, _notaryPrice,\r\n                               _amountPrice, _depositAmount);\r\n  }\r\n\r\n  function sellerTransaction(uint256 _propertyId) external onlySeller(_propertyId) whenCreated(_propertyId) payable {\r\n    Transaction(getTransaction()).sellerTransaction.value(msg.value)(_propertyId);\r\n  }\r\n\r\n  function buyerTransaction(uint256 _propertyId) external onlyBuyer(_propertyId) whenSellerPaid(_propertyId) payable {\r\n    Transaction(getTransaction()).buyerTransaction.value(msg.value)(_propertyId);\r\n  }\r\n\r\n  function completeTransaction(uint256 _propertyId) external onlyNotary(_propertyId) whenBuyerPaid(_propertyId) {\r\n    Transaction(getTransaction()).completeTransaction(_propertyId);\r\n    transferHouse(Transaction(getTransaction()).sellerOf(_propertyId), Transaction(getTransaction()).buyerOf(_propertyId), _propertyId);\r\n  }\r\n\r\n  function abortTransaction(uint256 _propertyId) external onlyStakeHolder(_propertyId) {\r\n    require(!isFinished(_propertyId) && !isInActive(_propertyId), \"Invalid state\");\r\n\r\n    Transaction(getTransaction()).abortTransaction(msg.sender, _propertyId);\r\n  }\r\n\r\n  function getTransactionData(uint256 _propertyId) external view onlyStakeHolder(_propertyId)\r\n  returns(address, address, address, string memory, TransactionDB.State) {\r\n    return(Transaction(getTransaction()).notaryOf(_propertyId), Transaction(getTransaction()).sellerOf(_propertyId), Transaction(getTransaction()).buyerOf(_propertyId),\r\n           Transaction(getTransaction()).ipfsHashOf(_propertyId), Transaction(getTransaction()).stateOf(_propertyId));\r\n  }\r\n\r\n  function getTransactionPayment(uint256 _propertyId) external view onlyStakeHolder(_propertyId)\r\n  returns(uint256, uint256, uint256, uint256, uint256) {\r\n    return(Transaction(getTransaction()).notaryPriceOf(_propertyId), Transaction(getTransaction()).amountPriceOf(_propertyId),\r\n    Transaction(getTransaction()).depositAmountOf(_propertyId), Transaction(getTransaction()).amountPaymentSellerOf(_propertyId),\r\n    Transaction(getTransaction()).amountPaymentBuyerOf(_propertyId));\r\n  }\r\n}\r\n",
  "sourcePath": "/Users/fadhlan.ridhwanallah/Documents/Project/TOKOIN/Contract_SmartHouse/contracts/SmartHouse.sol",
  "compiler": {
    "name": "solc",
    "version": "0.5.0+commit.1d4f565a.Emscripten.clang"
  },
  "schemaVersion": "3.0.2",
  "updatedAt": "2019-03-09T17:45:35.910Z",
  "devdoc": {
    "methods": {}
  },
  "userdoc": {
    "methods": {}
  }
}